:100000000A128A11F52F00308A000408840A820738
:100010000034013400340A34003464340034E834E9
:1000200003341034273425343034323464343A34D1
:1000300025343034323464343A3425343034323474
:10004000643400348316031311081F39031914197B
:100050002228080064008001840A04060319003481
:1000600004062B28F0000A128A112220700883123D
:10007000031393000800F100F0013A3071020318F5
:10008000472830307102031C4728F001F00A700C39
:1000900008008316031387150716283083120313ED
:1000A000940083160313910109309300803094006B
:1000B0000800F300F201731C61287008F100710858
:1000C000F2070310F00D0310F30CF308031D5B2877
:1000D00072080800F3007308F1007107F20072085B
:1000E000F4007008F1007108F4070A128A11222046
:1000F00074088312031393000800803083160313DF
:100100008500C030860087018801890183120313AE
:1001100089018801870186018501831603178801FB
:1001200089018B170B1708000A128A118B250A12F6
:100130008A1101300A128A1132240A128A110C30F3
:100140000A128A1132240A128A118230F700DD3035
:10015000F600F60BA928F70BA928AE280800F60030
:100160000A128A15F2270A128A11F00168300A125F
:100170008A116A200A128A1176080A128A1132201C
:100180000A128A1175080A128A1132200A128A117B
:100190000A128A15F9270800F401F501701CD62807
:1001A0007208F4070318F50A7308F5070130031005
:1001B000F20DF30DFF3E031DD72801300310F10CA3
:1001C000F00CFF3E031DDE2871087004031DCE28CD
:1001D0007508F101F1077408F001F0070800F1005B
:1001E0000A128A1122200A128A118316031391150A
:1001F0000A128A1122200A128A1183120313130889
:10020000F0007008F2000A128A1122200A128A11E4
:10021000710803190F2983160313911212298316EB
:1002200003139116111672080800FC000A30F00042
:100230000030F1007C08F900FA017908F2007A0830
:10024000F3000A128A116F230A128A117008FB0048
:100250007B0883120313B5000A30F9007908F00017
:1002600035080A128A115920FF3A013E7C07FA002C
:100270007A0883120313B400080001300A128A11AD
:10028000E2210A128A11F8007808FC007C087F3904
:10029000F8007808FC007C08F80004300310F80C23
:1002A000FF3E031D4E297808F9007908FA007C0802
:1002B0000F39F8007808FB000A30F8007808F000E1
:1002C0007A080A128A1159207B07080000300A12A6
:1002D0008A11E2210A128A11F8007808FC007C08D1
:1002E0007F39F8007808FC007C08F800043003101F
:1002F000F80CFF3E031D77297808F9007908FA0009
:100300007C080F39F8007808FB000A30F8007808FC
:10031000F0007A080A128A1159207B0708000A1295
:100320008A117D200A128A110A128A1194200A1257
:100330008A110A128A1149200A128A11FD0100301D
:100340000A128A1110220A128A1109300A128A111D
:10035000B8210A128A11FD0102300A128A1177228D
:100360000A128A110A128A1125230A128A11B22945
:1003700083120313CF0080304F02031808004F0888
:100380000A128A1115210A128A11831203133508E1
:10039000CD0003300310CD0DFF3E031DCA2903100D
:1003A0004D0DCE004E08D00050083404CD004D084D
:1003B000D0005008CD004D08F50001300A128A1116
:1003C000AF200800F6000A128A15F2270A128A11D5
:1003D000F00168300A128A116A200A128A1176081E
:1003E0000A128A1132200A128A110A128A15EB2780
:1003F0000A128A11F001F00A68300A128A116A2082
:100400000A128A1100300A128A11EF200A128A1188
:10041000F5007508F7000A128A15F9277708080011
:1004200083120313CF0050304F02031808004F0807
:100430000A128A1115210A128A1183120313350830
:10044000CD0003300310CD0DFF3E031D222A031003
:100450004D0DCE004E08D00050083404CD004D089C
:10046000D0007D08013A031D3A2A50088038CD009B
:100470004D08D0005008CD004D08F50000300A129C
:100480008A11AF200800790878040319702AFD0149
:10049000FD0AF91B572A01300310F80DF90DFF3E34
:1004A000031D4C2A0130FC007C08FD07492A79080D
:1004B0007B02031D5D2A78087A02031C652A7808EE
:1004C000FA027908031CFB03FB0201300310F90C4C
:1004D000F80CFF3E031D662A0130FD02031D572A5A
:1004E0007B08F901F9077A08F801F8070800831278
:1004F0000313CF0014304F02031808004F080A12EC
:100500008A1115210A128A11831203133508CD00AE
:1005100003300310CD0DFF3E031D892A03104D0D3E
:10052000CE004E08D00050083404CD004D08D00055
:1005300050084038CD004D08D0007D080319A52A89
:1005400050082038CD004D08D0005008CD004D088F
:10055000F50002300A128A11AF200800F600BF2A07
:100560007308803EBB2A7308C03EBB2A7308943EC2
:10057000BB2A7308D43EF5007508F700CD2A76082B
:10058000013A0319B02A033A0319B32A013A0319AD
:10059000B62A073A0319B92ACD2A77080A128A110E
:1005A00032240A128A117408840083138008031904
:1005B000080074088400831300080A128A11DD24DD
:1005C0000A128A110130F5007508F407D32AF501E3
:1005D000F6017108700403191E2BF701F70AF11BCD
:1005E000FD2A01300310F00DF10DFF3E031DF22A2C
:1005F0000130F4007408F707EF2A01300310F50DFD
:10060000F60DFF3E031DFE2A71087302031D0A2B1F
:1006100070087202031C132B7008F2027108031C8D
:10062000F303F302751401300310F10CF00CFF3EDC
:10063000031D142B0130F702031DFD2A7608F1017A
:10064000F1077508F001F00708000A128A11662107
:100650000A128A1183120313E2006208B8000A1218
:100660008A113D210A128A1183120313E2006208E3
:10067000B7000A128A11CA230A128A1183120313BD
:10068000E2006208B6000B30E2006208CD003608D6
:10069000E300E4016308CE006408CF003708E500FA
:1006A000E6016508D0006608D1003808E700E801D7
:1006B0006708D2006808D30039300A128A11402630
:1006C0000A128A11F301F30A393083120313E2008C
:1006D0006208F40001300A128A11AE220800F60105
:1006E000F11F792BF009F109F00A0319F10AF6015B
:1006F000F60AF31F842BF209F309F20A0319F30A2D
:100700000130F4007408F606F701F801710870046E
:100710000319BB2BF501F50AF11B9A2B01300310CD
:10072000F00DF10DFF3E031D8F2B0130F400740816
:10073000F5078C2B01300310F70DF80DFF3E031D5C
:100740009B2B71087302031DA72B70087202031CF8
:10075000B02B7008F2027108031CF303F302771444
:1007600001300310F10CF00CFF3E031DB12B0130E2
:10077000F502031D9A2B76080319C32BF709F80914
:10078000F70A0319F80A7808F101F1077708F00170
:10079000F007080002300A128A11E2210A128A11B7
:1007A000F8007808FD007D087F39F8007808FD0022
:1007B00040307D02031C0E2C7D083F39F80078087C
:1007C000FD007D08F80004300310F80CFF3E031D07
:1007D000E42B78080139F9007908FA007D080F390F
:1007E000F8007808FB000A30F8007808F0007A0872
:1007F0000A128A1159200A128A117B07F900790816
:10080000FC0020307D02031C302C7C080C3A0319BC
:10081000302C7C080C3EF80078082F2C7D083F39DE
:10082000F8007808FD007D08F80004300310F80C8B
:10083000FF3E031D162C7808F9007908FA007D08A0
:100840000F39F8007808FB000A30F8007808F0004B
:100850007A080A128A1159207B07F9007908FC00EE
:100860007C080800F2008312031388110811720833
:10087000F00007300310F00CFF3E031D3A2C700807
:100880000139F100F10EF10DF10D07087106BF39C4
:10089000710687007208F00006300310F00CFF3E6E
:1008A000031D4D2C70080139F100F10EF10D070800
:1008B0007106DF39710687007208F00005300310F9
:1008C000F00CFF3E031D5F2C70080139F100F10CA4
:1008D000F10C070871067F39710687007208F00075
:1008E00004300310F00CFF3E031D712C7008013919
:1008F000F100F10E08087106EF3971068800033027
:10090000F000F00B812C831203138815872C882CA0
:1009100000008312031388117208F00003300310E3
:10092000F00CFF3E031D8F2C70080139F100F10E11
:10093000F10DF10D07087106BF39710687007208C5
:10094000F00002300310F00CFF3E031DA22C7008D3
:100950000139F100F10EF10D07087106DF3971065A
:1009600087007208F0000310700C0139F100F10CDF
:10097000F10C070871067F3971068700720801398A
:10098000F000F00E08087006EF397006880003309A
:10099000F000F00BC92C831203138815CF2CD02C38
:1009A00000008312031388110830F1002330F00097
:1009B000F00BD82CF10BD82C0800F2008312031393
:1009C000881108157208F00007300310F00CFF3E84
:1009D000031DE52C70080139F100F10EF10DF10D48
:1009E00007087106BF39710687007208F0000630EB
:1009F0000310F00CFF3E031DF82C70080139F100C4
:100A0000F10EF10D07087106DF39710687007208D3
:100A1000F00005300310F00CFF3E031D0A2D700896
:100A20000139F100F10CF10C070871067F397106EC
:100A300087007208F00004300310F00CFF3E031D25
:100A40001C2D70080139F100F10E08087106EF390C
:100A5000710688000330F000F00B2C2D8312031375
:100A60008815322D332D000083120313881172086C
:100A7000F00003300310F00CFF3E031D3A2D700808
:100A80000139F100F10EF10DF10D07087106BF39C2
:100A9000710687007208F00002300310F00CFF3E70
:100AA000031D4D2D70080139F100F10EF10D0708FD
:100AB0007106DF39710687007208F0000310700CB0
:100AC0000139F100F10CF10C070871067F3971064C
:100AD000870072080139F000F00E08087006EF393F
:100AE000700688000330F000F00B742D831203139E
:100AF00088157A2D7B2D0000831203138811802D19
:100B0000812D00000830F1002330F000F00B862D1D
:100B1000F10B862D08008316031307138712871322
:100B20000812881108118312031307138712871301
:100B30000812881108110830F4002330F300F30B79
:100B40009F2DF40B9F2D0830F4002330F300F30B9E
:100B5000A72DF40BA72D0830F4002330F300F30B7E
:100B6000AF2DF40BAF2D0830F4002330F300F30B5E
:100B7000B72DF40BB72D0830F4002330F300F30B3E
:100B8000BF2DF40BBF2D0830F4002330F300F30B1E
:100B9000C72DF40BC72DF501F50A043075020318B3
:100BA000FA2D83120313071387128717081688116B
:100BB0000811071387128717081688150811E02DEA
:100BC000E12D0000831203130713871287170816FD
:100BD000881108110830F4002330F300F30BEE2DD8
:100BE000F40BEE2D0130F3007308F50704307502A5
:100BF000031CD12D831203130713871287170812C2
:100C00008811081107138712871708128815081111
:100C1000092E0A2E00008312031307138712871769
:100C20000812881108110830F4002330F300F30B88
:100C3000172EF40B172E2830F3007308F5007508F3
:100C40000A128A1132240A128A111030F300730832
:100C5000F50075080A128A1132240A128A11F50168
:100C6000F50A75080A128A1132240A128A110F3005
:100C7000F3007308F50075080A128A11322408007F
:100C800083120313E0004E30D4005408D700013023
:100C900083120313CD07FF304D0784000A128A1117
:100CA00003200A128A11D4005408E100E108031954
:100CB000EE2F6108253A0319692E6108D4006008F7
:100CC00084005408831380000130D4005408E007E6
:100CD000472EDE01DF01DD01722E5D150130D400EB
:100CE0005408CD074D0884000A128A1103200A1205
:100CF0008A11303A03196D2E7D2E4D0884000A1298
:100D00008A1103200A128A110A128A113B200A1240
:100D10008A11031CCD2E83120313DE01DF010A307A
:100D2000F0000030F100831203135F08F301F307B2
:100D30005E08F201F2070A128A11CC200A128A1107
:100D4000710883120313DF01DF077008DE01DE077D
:100D50004D0884000A128A1103200A128A11D03E1B
:100D6000D400FF3003180030D5005408DE07031804
:100D7000DF0A5508DF070130D4005408CD074D08BD
:100D800084000A128A1103200A128A110A128A1197
:100D90003B200A128A1103188F2E0130831203138D
:100DA000CD07FF304D0784000A128A1103200A1272
:100DB0008A11E100003A0319EE2F643A0319E42E78
:100DC0000D3A0319E42E472E8312031357088400AB
:100DD00083130008D900840A0008DA000230D40026
:100DE0005408D707DA1FFD2E0330D4005408DD0461
:100DF000D909DA09D90A0319DA0AE101E10A610815
:100E0000053A0319242F6108D4005407013E8400D9
:100E10000A128A1103200A128A11D5000A128A11B5
:100E200003200A128A11D60056085A02031D1A2FEF
:100E300055085902031C242F0130D4005408E1073F
:100E40006108053A031D032F5F085E040319322F62
:100E50005D0803390319322FFF30DE070318DF0A5C
:100E6000FF30DF076108D400D501D41BD503550836
:100E7000803AD6005F08803A5602031D412F5E0873
:100E800054020318512F831203136108D400D501B3
:100E9000D41BD5035408DE025508031CDF03DF0210
:100EA000552F83120313DE01DF015D1D7C2F5D08CA
:100EB00003390319662F2D30D400600884005408CC
:100EC000831380000130D4005408E0075F085E04FB
:100ED0000319A42F3030D400600884005408831311
:100EE00080000130D4005408E007FF30DE0703180B
:100EF000DF0AFF30DF07662F5F085E040319952FB6
:100F00002030D4006008840054088313800001302E
:100F1000D4005408E007FF30DE070318DF0AFF3073
:100F2000DF075F085E04031D802F5D080339031986
:100F3000A42F2D30D400600884005408831380004F
:100F40000130D4005408E0076108D4005408D800E8
:100F5000FF30D4005408D8075808FF3A0319472E29
:100F60000A30F8000030F9005808D4005407013E58
:100F700084000A128A1103200A128A11F0000A1250
:100F80008A1103200A128A11F1005A08F301F307AB
:100F90005908F201F2070A128A11E7220A128A118D
:100FA0007108FB01FB077008FA01FA070A128A119F
:100FB00043220A128A117808303E83120313D500A7
:100FC0005508E1006108D4006008840054088313C8
:100FD00080000130D4005408E007A82F83120313C7
:100FE000600884008313800108008313203084008C
:100FF0004D300A128A112A2083010A128A118F2980
:101FD6000A128A11222083160313911408000A128A
:101FE6008A11222083160313111408000A128A117B
:0A1FF60022208316031311150800C2
:04400E00F1E0FFFFDF
:00000001FF
